:100000000C943E400C945B400C945B400C945B4021
:100010000C945B400C945B400C945B400C945B40F4
:100020000C945B400C945B400C945B400C945B40E4
:100030000C945B400C945B400C945B400C945B40D4
:100040000C945B400C945B400C945B400C945B40C4
:100050000C945B400C945B400C945B400C945B40B4
:100060000C945B400C945B400C945B400C945B40A4
:100070000C945B400C945B400C945B4001010101CB
:100080000101010101010101010101010101010160
:100090000101010101010101010101010101010150
:1000A0000101010101010101010101010101010140
:1000B0000101010101010101010101010101010130
:104070000101010101010101010101010000000034
:104080000000000000000000000000000000000030
:104090000000000000000000000000000000000020
:1040A0000000000000000000000000000000000010
:1040B0000000000000000000000000000000000000
:1080700000000000000000000000000011241FBEEE
:10808000CFEFD0E1DEBFCDBF12E0A0E0B1E0E4E48D
:10809000FCE802C005900D92AC39B107D9F722E097
:1080A000ACE9B2E001C01D92A23AB207E1F70E942A
:1080B0008C410C9420460C9400001092C50080E185
:1080C0008093C400E0ECF0E080818260808386E0F1
:1080D0008093C20088E18093C1000895CF93C82F98
:1080E0008A3019F48DE00E946E408091C00085FFB7
:1080F000FCCFC093C600CF9108958091C000882323
:10810000E4F78091C60008958BB180648BB98BB180
:1081100080628BB98BB180688BB912B811B881E0DD
:108120008A95F1F7089585B998B981E0982F9A95C5
:10813000F1F79BB19F7D9BB9982F9A95F1F79BB171
:108140009F7B9BB98A95F1F780B108958BB18066CA
:108150008BB915B818B80895CF93DF93EC010E943E
:108160008440CE010E949340C82F0E94A6408C2FCD
:10817000DF91CF9108958BB180628BB98BB1806410
:108180008BB98BB180688BB912B88FEF81B981E060
:108190008A95F1F7089585B998B981E0982F9A9555
:1081A000F1F79BB19F779BB9982F9A95F1F79BB107
:1081B0009F7D9BB962B9982F9A95F1F79BB1906218
:1081C0009BB98A95F1F78BB180688BB908958BB113
:1081D00080648BB98BB180628BB98BB180688BB9AD
:1081E00011B812B815B818B881E08A95F1F708955A
:1081F0001F93CF93DF93EC01162F0E94BB406AEAD6
:1082000085E595E50E94CB4065E58AEA9AE20E9401
:10821000CB4060EA85E595E50E94CB40612FCE0119
:108220000E94CB400E94E74003C081E08A95F1F7AD
:10823000CE010E94AC401813F8CFDF91CF911F916F
:1082400008950E94BB406AEA85E595E50E94CB400F
:1082500065E58AEA9AE20E94CB4060E885E595E50B
:108260000E94CB406AEA85E595E50E94CB4065E532
:108270008AEA9AE20E94CB4060E185E595E50E949A
:10828000CB400E94E74003C081E08A95F1F780E08F
:1082900090E00E94AC408F3FB9F70895CF93DF93F1
:1082A0000E94BB406AEA85E595E50E94CB4065E502
:1082B0008AEA9AE20E94CB4060E985E595E50E9452
:1082C000CB400E94E74080E090E00E94AC4090E00C
:1082D000C92FD82F81E090E00E94AC40C82B0E94AB
:1082E000BB406AEA85E595E50E94CB4065E58AEAF0
:1082F0009AE20E94CB4060EF85E595E50E94CB4075
:108300000E94E74087EC90E00197F1F700C0000081
:10831000CE01DF91CF9108958AB1806E8AB98AB17A
:10832000837E8AB98BB18C6F8BB911B88FEF84B90A
:1083300087B90E945D40ECE9F2E08EE091E0938322
:10834000828380E091E0918380838CE191E00E94C0
:1083500028430E944E419F938F9380E491E09F9326
:108360008F930E940B430F900F900F900F904C9B98
:1083700035C085E591E00E9428434B990E94214138
:108380004A9909C0C0E0D0E015C06C2FCE010E9410
:10839000F840219602C0C0E0D0E0C11523E0D2072A
:1083A000A0F31CC0FE01E458FF4B6491CE010E9473
:1083B000F8402196C11580E4D807A0F3C0E0D0E0D2
:1083C00009C0FE01E458FF4F6491CE01905C0E9409
:1083D000F8402196C11590E4D90798F382E691E020
:1083E0000E9428434A994CC0C12CD12C00E010E0D7
:1083F0009AC0FF92EF9284EC91E09F938F930E943A
:108400000B430F900F900F900F90C0E0D0E01FC073
:10841000C83021F489E090E00E942143C7018C0F0D
:10842000911D0E94AC409C2F9E0D891719F0DF5FB3
:108430000F5F1F4F1F928F938DEC91E09F938F934F
:108440000E940B43CF5F0F900F900F900F90C031A1
:10845000F8F2DD2369F01F92DF9385ED91E09F93A1
:108460008F930E940B430F900F900F900F9004C0BA
:108470008AE090E00E94214320E1E20EF11C04C05A
:10848000E12CF12C00E010E0E11483E0F80608F4A0
:10849000B0CFA7C0DF92CF9284EC91E09F938F93EF
:1084A0000E940B430F900F900F900F90C0E0D0E010
:1084B00022C0C83021F489E090E00E942143760177
:1084C000EC0EF11CC7010E94AC40F701E458FF4BD1
:1084D0009491891719F0DF5F0F5F1F4F1F928F93E1
:1084E0008DEC91E09F938F930E940B43CF5F0F9091
:1084F0000F900F900F90C031E0F2DD2369F01F92D2
:10850000DF9380EE91E09F938F930E940B430F9037
:108510000F900F900F9004C08EEE91E00E942843C0
:1085200090E1C90ED11CC11420E4D20608F4B2CFE8
:10853000E12CF12C51C0670180ECD81ADF92CF9268
:1085400084EC91E09F938F930E940B430F900F90C8
:108550000F900F90B12CA12C26C098E0B91204C046
:1085600089E090E00E942143CB2DD0E0C6018C0F22
:108570009D1F0E94AC40F701EC0FFD1FE458FF4F18
:108580009491891719F0A3940F5F1F4F1F928F9337
:108590008DEC91E09F938F930E940B43B3940F90C7
:1085A0000F900F900F902FE02B15B8F6AA2069F0CE
:1085B0001F92AF9282EF91E09F938F930E940B43A3
:1085C0000F900F900F900F9004C080E092E00E94F7
:1085D000284380E1E80EF11CE11490E4F90608F468
:1085E000AACF1F930F9384E092E09F938F930E94F2
:1085F0000B438EE192E00E9428432FEF8BE792E934
:10860000215080409040E1F700C000000F900F9093
:108610000F900F90E3CEA0E0B0E0E1E1F3E40C9422
:10862000F945AE014B5F5F4FFA0161917191AF0166
:1086300080919E0290919F020E945843E2E00C9428
:10864000154660919E0270919F020E944F450895C9
:108650000F931F93CF93DF93E0919E02F0919F02BF
:10866000238121FF1BC08C01D0E0C0E0F801819183
:108670008F0160919E0270919F02DB011896ED912F
:10868000FC911997882331F00995892B79F3DFEF55
:10869000CFEFECCF8AE00995892B19F08FEF9FEF90
:1086A00002C08D2F9C2FDF91CF911F910F910895C4
:1086B000ABE0B0E0EEE5F3E40C94E9456C017B013E
:1086C0008A01FC0117821682838181FFCCC1CE0111
:1086D00001963C01F6019381F70193FD859193FF8B
:1086E00081917F01882309F4BAC1853239F493FD61
:1086F000859193FF81917F01853229F4B60190E045
:108700000E944F45E7CF912C212C312CFFE1F3152E
:10871000D8F08B3279F038F4803279F08332A1F4DA
:10872000232D20611DC08D3261F0803369F4232D2B
:10873000216016C0832D8260382EE32DE4603E2E2A
:108740002AC0F32DF8601DC037FC2DC020ED280F86
:108750002A3040F08E32B9F436FC81C1232D2064DA
:10876000322E19C036FE06C08AE0989E200D1124D4
:10877000922E11C0EAE02E9E200D1124222EF32D00
:10878000F0623F2E08C08C3621F4832D8068382E8D
:1087900002C0883641F4F70193FD859193FF8191E2
:1087A0007F018111B3CF982F9F7D9554933028F48A
:1087B0000C5F1F4F9FE399830DC0833631F08337E1
:1087C00071F0833509F059C021C0F8018081898397
:1087D0000E5F1F4F88248394912C530113C02801EE
:1087E000F2E04F0E511CF801A080B18036FE03C0AC
:1087F000692D70E002C06FEF7FEFC5010E94444514
:108800004C018201F32DFF773F2E16C0280122E094
:10881000420E511CF801A080B18036FE03C0692DC4
:1088200070E002C06FEF7FEFC5010E9439454C0137
:10883000F32DF0683F2E820133FC1BC0822D90E0A7
:1088400088169906B0F4B60180E290E00E944F4588
:108850002A94F4CFF50137FC859137FE81915F01B1
:10886000B60190E00E944F4521102A9421E0821A1F
:1088700091088114910471F7E8C0843611F08936AB
:1088800041F5F80137FE07C06081718182819381D3
:108890000C5F1F4F08C060817181072E000C880B90
:1088A000990B0E5F1F4FF32DFF763F2E97FF09C0E8
:1088B00090958095709561957F4F8F4F9F4FF06891
:1088C0003F2E2AE030E0A3010E948B45882E8618B7
:1088D00045C0853731F4232D2F7EB22E2AE030E0BB
:1088E00025C0932D997FB92E8F36C1F018F48835A5
:1088F00079F0B5C0803719F0883721F0B0C0E92F82
:10890000E061BE2EB4FE0DC0FB2DF460BF2E09C089
:1089100034FE0AC0292F2660B22E06C028E030E0BF
:1089200005C020E130E002C020E132E0F801B7FEEE
:1089300007C060817181828193810C5F1F4F06C0E7
:108940006081718180E090E00E5F1F4FA3010E9463
:108950008B45882E8618FB2DFF773F2E36FE0DC0E7
:10896000232D2E7FA22E891458F434FE0BC032FC26
:1089700009C0832D8E7EA82E05C0B82CA32C03C061
:10898000B82C01C0B92CA4FE0FC0FE01E80DF11DEA
:108990008081803321F49A2D997EA92E09C0A2FEF0
:1089A00006C0B394B39404C08A2D867809F0B394BA
:1089B000A3FC11C0A0FE06C0B21488F4280C922CAF
:1089C0009B180EC0B21460F4B60180E290E00E94E1
:1089D0004F45B394F7CFB21418F42B1802C0982C5B
:1089E000212CA4FE10C0B60180E390E00E944F4508
:1089F000A2FE17C0A1FC03C088E790E002C088E592
:108A000090E0B6010CC08A2D867859F0A1FE02C014
:108A10008BE201C080E2A7FC8DE2B60190E00E94EB
:108A20004F45891438F4B60180E390E00E944F4529
:108A30009A94F7CF8A94F301E80DF11D8081B60175
:108A400090E00E944F458110F5CF222009F442CEDC
:108A5000B60180E290E00E944F452A94F6CFF601DD
:108A60008681978102C08FEF9FEF2B96E2E10C94F5
:108A70000546FC010590615070400110D8F78095C3
:108A800090958E0F9F1F0895FC01615070400190DA
:108A90000110D8F7809590958E0F9F1F08950F9322
:108AA0001F93CF93DF93FB01238121FD03C08FEF41
:108AB0009FEF2CC022FF16C046815781248135814B
:108AC0004217530744F4A081B1819D012F5F3F4FAE
:108AD000318320838C93268137812F5F3F4F3783EB
:108AE000268314C08B01EC01FB010084F185E02D8D
:108AF0000995892BE1F6D80116968D919C911797CF
:108B0000019617969C938E931697CE01DF91CF9185
:108B10001F910F910895FA01AA27283051F12031B1
:108B200081F1E8946F936E7F6E5F7F4F8F4F9F4F01
:108B3000AF4FB1E03ED0B4E03CD0670F781F891F43
:108B40009A1FA11D680F791F8A1F911DA11D6A0F11
:108B5000711D811D911DA11D20D009F468943F91C4
:108B60002AE0269F11243019305D3193DEF6CF01C3
:108B70000895462F4770405D4193B3E00FD0C9F789
:108B8000F6CF462F4F70405D4A3318F0495D31FDF6
:108B90004052419302D0A9F7EACFB4E0A695979549
:108BA000879577956795BA95C9F70097610571051F
:108BB00008959B01AC010A2E069457954795379569
:108BC0002795BA95C9F7620F731F841F951FA01DC3
:108BD00008952F923F924F925F926F927F928F9261
:108BE0009F92AF92BF92CF92DF92EF92FF920F933C
:108BF0001F93CF93DF93CDB7DEB7CA1BDB0B0FB646
:108C0000F894DEBF0FBECDBF09942A883988488802
:108C10005F846E847D848C849B84AA84B984C88498
:108C2000DF80EE80FD800C811B81AA81B981CE0F8F
:108C3000D11D0FB6F894DEBF0FBECDBFED01089574
:048C4000F894FFCFD6
:108C4400000000010000000000007D400000000062
:108C54000002000000006E40000000000A53524170
:108C64004D206F7220454550524F4D206F72204663
:108C74004C41534820696E746572666163650A00ED
:108C84000A6465766963652049443A203078253062
:108C940034780A0A000A77726974696E672E2E2E78
:108CA4000A0061646472657373090920202020300E
:108CB400202020203120202020322020202033207A
:108CC4002020203420202020352020202036202061
:108CD400202037092020202038202020203920205F
:108CE40020206120202020622020202063202020BA
:108CF4002064202020206520202020460920657241
:108D0400726F720030782530347809090020307889
:108D140025303278000920202020253032640A00D2
:108D24000920202020253032640964300A000964B7
:108D340030000920202020253032640964310A00E3
:108D4400096431000A20546F74616C206572726F7B
:108D5400727320636F756E743A2025640A000A2FBB
:108D64002F2F2F2F2F2F2F2F2F2F2F2F2F2F2F2F0F
:108D74002F2F2F2F2F2F2F2F2F2F2F2F2F2F2F2FFF
:108D84002F2F2F2F2F2F2F2F2F2F2F2F2F2F2F2FEF
:108D94002F2F2F2F2F2F2F2F2F2F2F2F2F2F2F2FDF
:108DA4002F2F2F2F2F2F2F2F2F2F2F2F2F2F2F2FCF
:108DB4002F2F2F2F2F2F2F2F2F2F2F2F2F2F2F2FBF
:108DC4002F2F2F2F2F2F2F2F2F2F2F2F2F2F2F2FAF
:0C8DD4002F2F2F2F2F2F2F2F2F2F0A00B3
:00000001FF
