:100000000C943E000C945B000C945B000C945B0021
:100010000C945B000C945B000C945B000C945B00F4
:100020000C945B000C945B000C945B000C945B00E4
:100030000C945B000C945B000C945B000C945B00D4
:100040000C945B000C945B000C945B000C945B00C4
:100050000C945B000C945B000C945B000C945B00B4
:100060000C945B000C945B000C945B000C945B00A4
:100070000C945B000C945B000C945B0011241FBE7D
:10008000CFEFD0E1DEBFCDBF12E0A0E0B1E0E4E908
:10009000FAE002C005900D92AC36B107D9F722E024
:1000A000ACE6B2E001C01D92A237B207E1F70E94B0
:1000B00095010C9448050C9400001092C50080E155
:1000C0008093C400E0ECF0E080818260808386E071
:1000D0008093C20088E18093C1000895CF93C82F18
:1000E0008A3019F48DE00E946E008091C00085FF77
:1000F000FCCFC093C600CF9108958091C0008823A3
:10010000E4F78091C60008958BB180648BB98BB100
:1001100080628BB98BB180688BB912B811B881E05D
:100120008A95F1F7089585B998B981E0982F9A9545
:10013000F1F79BB19F7D9BB9982F9A95F1F79BB1F1
:100140009F7B9BB98A95F1F780B108958BB180664A
:100150008BB915B818B80895CF93DF93EC010E94BE
:100160008400CE010E949300C82F0E94A6008C2F0D
:10017000DF91CF9108958BB180628BB98BB1806490
:100180008BB98BB180688BB912B88FEF81B981E0E0
:100190008A95F1F7089585B998B981E0982F9A95D5
:1001A000F1F79BB19F779BB9982F9A95F1F79BB187
:1001B0009F7D9BB962B9982F9A95F1F79BB1906298
:1001C0009BB98A95F1F78BB180688BB908958BB193
:1001D00080648BB98BB180628BB98BB180688BB92D
:1001E00011B812B815B818B881E08A95F1F70895DA
:1001F0001F93CF93DF93EC01162F0E94BB006AEA96
:1002000085E595E50E94CB0065E58AEA9AE20E94C1
:10021000CB0060EA85E595E50E94CB00612FCE0119
:100220000E94CB000E94E70003C081E08A95F1F7AD
:10023000CE010E94AC001813F8CFDF91CF911F912F
:1002400008951F93CF93DF93182F0E94BB006AEA93
:1002500085E595E50E94CB0065E58AEA9AE20E9471
:10026000CB0060E885E595E50E94CB006AEA85E56C
:1002700095E50E94CB0065E58AEA9AE20E94CB00F0
:10028000D0E0C12F60E380E0912F0E94CB000E945C
:10029000E70003C081E08A95F1F78D2F9C2F0E9423
:1002A000AC008F3FB9F7DF91CF911F910895CF93A5
:1002B000DF930E94BB006AEA85E595E50E94CB00CA
:1002C00065E58AEA9AE20E94CB0060E985E595E55A
:1002D0000E94CB000E94E70080E090E00E94AC000A
:1002E00090E0C92FD82F81E090E00E94AC00C82B8D
:1002F0000E94BB006AEA85E595E50E94CB0065E5B2
:100300008AEA9AE20E94CB0060EF85E595E50E94BB
:10031000CB000E94E70087EC90E00197F1F700C066
:100320000000CE01DF91CF9108958AB1806E8AB925
:100330008AB1837E8AB98BB18C6F8BB911B88FEF7C
:1003400084B987B90E945D00ECE6F2E08EE091E0AE
:100350009383828380E091E0918380838CE191E0BC
:100360000E9450020E9457019F938F9380E491E076
:100370009F938F930E9433020F900F900F900F90D6
:100380004C9B15C085E591E00E9450024B9B03C039
:1003900080E00E942101C0E0D0E005C06C2FCE01BA
:1003A0000E94F8002196C11523E0D207B8F38FE62A
:1003B00091E00E94500200E010E042C01F930F93B2
:1003C00081ED91E09F938F930E9433020F900F90E5
:1003D0000F900F90C0E0D0E01CC0C83021F489E03D
:1003E00090E00E944902C8018C0F911D0E94AC0050
:1003F0009C2F900F8913DF5F1F928F938AED91E0FE
:100400009F938F930E943302CF5F0F900F900F90B6
:100410000F90C03110F3DD2369F01F92DF9382EE5D
:1004200091E09F938F930E9433020F900F900F9053
:100430000F9004C08AE090E00E944902005F1F4FC5
:10044000011583E0180708F4B9CF8DEE91E00E9402
:1004500050029FEF2BE782E9915020408040E1F766
:1004600000C00000A4CFA0E0B0E0E9E3F2E00C940B
:100470002105AE014B5F5F4FFA0161917191AF01B0
:1004800080916E0290916F020E948002E2E00C94D3
:100490003D0560916E0270916F020E94770408958D
:1004A0000F931F93CF93DF93E0916E02F0916F0251
:1004B000238121FF1BC08C01D0E0C0E0F8018191B5
:1004C0008F0160916E0270916F02DB011896ED91C1
:1004D000FC911997882331F00995892B79F3DFEF87
:1004E000CFEFECCF8AE00995892B19F08FEF9FEFC2
:1004F00002C08D2F9C2FDF91CF911F910F910895F6
:10050000ABE0B0E0E6E8F2E00C9411056C017B0191
:100510008A01FC0117821682838181FFCCC1CE0142
:1005200001963C01F6019381F70193FD859193FFBC
:1005300081917F01882309F4BAC1853239F493FD92
:10054000859193FF81917F01853229F4B60190E076
:100550000E947704E7CF912C212C312CFFE1F31579
:10056000D8F08B3279F038F4803279F08332A1F40C
:10057000232D20611DC08D3261F0803369F4232D5D
:10058000216016C0832D8260382EE32DE4603E2E5C
:100590002AC0F32DF8601DC037FC2DC020ED280FB8
:1005A0002A3040F08E32B9F436FC81C1232D20640C
:1005B000322E19C036FE06C08AE0989E200D112406
:1005C000922E11C0EAE02E9E200D1124222EF32D32
:1005D000F0623F2E08C08C3621F4832D8068382EBF
:1005E00002C0883641F4F70193FD859193FF819114
:1005F0007F018111B3CF982F9F7D9554933028F4BC
:100600000C5F1F4F9FE399830DC0833631F0833712
:1006100071F0833509F059C021C0F80180818983C8
:100620000E5F1F4F88248394912C530113C028011F
:10063000F2E04F0E511CF801A080B18036FE03C0DD
:10064000692D70E002C06FEF7FEFC5010E946C045E
:100650004C018201F32DFF773F2E16C0280122E0C6
:10066000420E511CF801A080B18036FE03C0692DF6
:1006700070E002C06FEF7FEFC5010E9461044C0182
:10068000F32DF0683F2E820133FC1BC0822D90E0D9
:1006900088169906B0F4B60180E290E00E947704D3
:1006A0002A94F4CFF50137FC859137FE81915F01E3
:1006B000B60190E00E94770421102A9421E0821A6A
:1006C00091088114910471F7E8C0843611F08936DD
:1006D00041F5F80137FE07C0608171818281938105
:1006E0000C5F1F4F08C060817181072E000C880BC2
:1006F000990B0E5F1F4FF32DFF763F2E97FF09C01A
:1007000090958095709561957F4F8F4F9F4FF068C2
:100710003F2E2AE030E0A3010E94B304882E861801
:1007200045C0853731F4232D2F7EB22E2AE030E0EC
:1007300025C0932D997FB92E8F36C1F018F48835D6
:1007400079F0B5C0803719F0883721F0B0C0E92FB3
:10075000E061BE2EB4FE0DC0FB2DF460BF2E09C0BB
:1007600034FE0AC0292F2660B22E06C028E030E0F1
:1007700005C020E130E002C020E132E0F801B7FE20
:1007800007C060817181828193810C5F1F4F06C019
:100790006081718180E090E00E5F1F4FA3010E9495
:1007A000B304882E8618FB2DFF773F2E36FE0DC032
:1007B000232D2E7FA22E891458F434FE0BC032FC58
:1007C00009C0832D8E7EA82E05C0B82CA32C03C093
:1007D000B82C01C0B92CA4FE0FC0FE01E80DF11D1C
:1007E0008081803321F49A2D997EA92E09C0A2FE22
:1007F00006C0B394B39404C08A2D867809F0B394EC
:10080000A3FC11C0A0FE06C0B21488F4280C922CE0
:100810009B180EC0B21460F4B60180E290E00E9412
:100820007704B394F7CFB21418F42B1802C0982CA5
:10083000212CA4FE10C0B60180E390E00E94770452
:10084000A2FE17C0A1FC03C088E790E002C088E5C3
:1008500090E0B6010CC08A2D867859F0A1FE02C046
:100860008BE201C080E2A7FC8DE2B60190E00E941D
:100870007704891438F4B60180E390E00E9477048D
:100880009A94F7CF8A94F301E80DF11D8081B601A7
:1008900090E00E9477048110F5CF222009F442CE27
:1008A000B60180E290E00E9477042A94F6CFF60128
:1008B0008681978102C08FEF9FEF2B96E2E10C9427
:1008C0002D05FC010590615070400110D8F780950E
:1008D00090958E0F9F1F0895FC016150704001900C
:1008E0000110D8F7809590958E0F9F1F08950F9354
:1008F0001F93CF93DF93FB01238121FD03C08FEF73
:100900009FEF2CC022FF16C046815781248135817C
:100910004217530744F4A081B1819D012F5F3F4FDF
:10092000318320838C93268137812F5F3F4F37831C
:10093000268314C08B01EC01FB010084F185E02DBE
:100940000995892BE1F6D80116968D919C91179700
:10095000019617969C938E931697CE01DF91CF91B7
:100960001F910F910895FA01AA27283051F12031E3
:1009700081F1E8946F936E7F6E5F7F4F8F4F9F4F33
:10098000AF4FB1E03ED0B4E03CD0670F781F891F75
:100990009A1FA11D680F791F8A1F911DA11D6A0F43
:1009A000711D811D911DA11D20D009F468943F91F6
:1009B0002AE0269F11243019305D3193DEF6CF01F5
:1009C0000895462F4770405D4193B3E00FD0C9F7BB
:1009D000F6CF462F4F70405D4A3318F0495D31FD28
:1009E0004052419302D0A9F7EACFB4E0A69597957B
:1009F000879577956795BA95C9F700976105710551
:100A000008959B01AC010A2E06945795479537959A
:100A10002795BA95C9F7620F731F841F951FA01DF4
:100A200008952F923F924F925F926F927F928F9292
:100A30009F92AF92BF92CF92DF92EF92FF920F936D
:100A40001F93CF93DF93CDB7DEB7CA1BDB0B0FB677
:100A5000F894DEBF0FBECDBF09942A883988488834
:100A60005F846E847D848C849B84AA84B984C884CA
:100A7000DF80EE80FD800C811B81AA81B981CE0FC1
:100A8000D11D0FB6F894DEBF0FBECDBFED010895A6
:040A9000F894FFCF08
:100A9400000000010000000000007D0000000000D4
:100AA4000002000000006E00000000000A535241E2
:100AB4004D206F7220454550524F4D206F72204695
:100AC4004C41534820696E746572666163650A001F
:100AD4000A6465766963652049443A203078253094
:100AE40034780A0A000A77726974696E672074653B
:100AF4007374207061747465726E2E2E2E0A0061F8
:100B0400646472657373090920202020302020203A
:100B1400203120202020322020202033202020209B
:100B2400342020202035202020203620202020376B
:100B34000920202020382020202039202020206156
:100B440020202020622020202063202020206420D8
:100B540020202065202020204609206572726F72B3
:100B64000030782530347809090020307825303277
:100B740078000920202020253032640A000A2F2F13
:100B84002F2F2F2F2F2F2F2F2F2F2F2F2F2F2F2F71
:100B94002F2F2F2F2F2F2F2F2F2F2F2F2F2F2F2F61
:100BA4002F2F2F2F2F2F2F2F2F2F2F2F2F2F2F2F51
:100BB4002F2F2F2F2F2F2F2F2F2F2F2F2F2F2F2F41
:100BC4002F2F2F2F2F2F2F2F2F2F2F2F2F2F2F2F31
:100BD4002F2F2F2F2F2F2F2F2F2F2F2F2F2F2F2F21
:100BE4002F2F2F2F2F2F2F2F2F2F2F2F2F2F2F2F11
:0C0BF4002F2F2F2F2F2F2F2F2F0A000044
:00000001FF
